{
  "contractName": "MarksMgmt",
  "abi": [
    {
      "constant": true,
      "inputs": [
        {
          "name": "",
          "type": "uint256"
        }
      ],
      "name": "students",
      "outputs": [
        {
          "name": "id",
          "type": "uint256"
        },
        {
          "name": "grade",
          "type": "int256"
        },
        {
          "name": "pLangMarks",
          "type": "int256"
        },
        {
          "name": "sLangMarks",
          "type": "int256"
        },
        {
          "name": "religionMarks",
          "type": "int256"
        },
        {
          "name": "mathsMarks",
          "type": "int256"
        },
        {
          "name": "aestheticsMarks",
          "type": "int256"
        }
      ],
      "payable": false,
      "stateMutability": "view",
      "type": "function"
    },
    {
      "constant": false,
      "inputs": [
        {
          "name": "id",
          "type": "uint256"
        },
        {
          "name": "grade",
          "type": "int256"
        },
        {
          "name": "pLangMarks",
          "type": "int256"
        },
        {
          "name": "sLangMarks",
          "type": "int256"
        },
        {
          "name": "religionMarks",
          "type": "int256"
        },
        {
          "name": "mathsMarks",
          "type": "int256"
        },
        {
          "name": "aestheticsMarks",
          "type": "int256"
        }
      ],
      "name": "addMarks",
      "outputs": [],
      "payable": false,
      "stateMutability": "nonpayable",
      "type": "function"
    },
    {
      "constant": true,
      "inputs": [
        {
          "name": "id",
          "type": "uint256"
        }
      ],
      "name": "showMarksById",
      "outputs": [
        {
          "name": "grade",
          "type": "int256"
        },
        {
          "name": "pLangMarks",
          "type": "int256"
        },
        {
          "name": "sLangMarks",
          "type": "int256"
        },
        {
          "name": "religionMarks",
          "type": "int256"
        },
        {
          "name": "mathsMarks",
          "type": "int256"
        },
        {
          "name": "aestheticsMarks",
          "type": "int256"
        }
      ],
      "payable": false,
      "stateMutability": "view",
      "type": "function"
    }
  ],
  "bytecode": "0x608060405234801561001057600080fd5b50610324806100206000396000f3fe608060405260043610610057576000357c0100000000000000000000000000000000000000000000000000000000900463ffffffff16806306ead22e1461005c5780637baff453146100d5578063d9261a5914610147575b600080fd5b34801561006857600080fd5b506100956004803603602081101561007f57600080fd5b81019080803590602001909291905050506101be565b6040518088815260200187815260200186815260200185815260200184815260200183815260200182815260200197505050505050505060405180910390f35b3480156100e157600080fd5b5061010e600480360360208110156100f857600080fd5b8101908080359060200190929190505050610200565b60405180878152602001868152602001858152602001848152602001838152602001828152602001965050505050505060405180910390f35b34801561015357600080fd5b506101bc600480360360e081101561016a57600080fd5b81019080803590602001909291908035906020019092919080359060200190929190803590602001909291908035906020019092919080359060200190929190803590602001909291905050506102a2565b005b60006020528060005260406000206000915090508060000154908060010154908060020154908060030154908060040154908060050154908060060154905087565b60008060008060008060008088815260200190815260200160002060010154600080898152602001908152602001600020600201546000808a8152602001908152602001600020600301546000808b8152602001908152602001600020600401546000808c8152602001908152602001600020600501546000808d81526020019081526020016000206006015495509550955095509550955091939550919395565b60008060008981526020019081526020016000209050868160010181905550858160020181905550848160030181905550838160040181905550828160050181905550818160060181905550505050505050505056fea165627a7a723058207c5713cc5cb49d0f95b4da0624ccea80676632431c0a8843e96d0779570bc9c30029",
  "source": "pragma solidity ^0.5.0;\r\n\r\ncontract MarksMgmt {\r\n\t// TODO :  Make a JSON File including {grade :[STUDENT IDs]}\r\n\tstruct Student {\r\n\t\tuint id;\r\n\t\tint grade;\r\n\t\tint pLangMarks;\r\n\t\tint sLangMarks;\r\n\t\tint religionMarks;\r\n\t\tint mathsMarks;\r\n\t\tint aestheticsMarks;\r\n\t}\r\n\r\n\tmapping(uint=> Student) public students;\r\n\r\n\r\n\tfunction addMarks(uint id, int grade, int pLangMarks, int sLangMarks, int religionMarks, int mathsMarks, int aestheticsMarks) public {\r\n\t\t// Adds Marks to a respective Student ID\r\n\t\tStudent storage studentMarks = students[id];\r\n\t\tstudentMarks.grade = grade;\r\n\t\tstudentMarks.pLangMarks = pLangMarks;\r\n\t\tstudentMarks.sLangMarks = sLangMarks;\r\n\t\tstudentMarks.religionMarks = religionMarks;\r\n\t\tstudentMarks.mathsMarks = mathsMarks;\r\n\t\tstudentMarks.aestheticsMarks = aestheticsMarks;\r\n\t}\r\n\r\n\tfunction showMarksById (uint id) public view returns (int grade, int pLangMarks, int sLangMarks, int religionMarks, int mathsMarks, int aestheticsMarks){\r\n\t\t// Shows Marks from a given Student ID\r\n\t\treturn (students[id].grade, students[id].pLangMarks, students[id].sLangMarks, students[id].religionMarks, students[id].mathsMarks, students[id].aestheticsMarks);\r\n\t}\r\n}",
  "sourcePath": "D:/Work/Learning/Blockchain/Coding/BlockMarks/contracts/MarksMgmt.sol",
  "compiler": {
    "name": "solc",
    "version": "0.5.0+commit.1d4f565a.Emscripten.clang"
  },
  "schemaVersion": "3.0.9",
  "updatedAt": "2019-06-02T14:07:31.923Z",
  "devdoc": {
    "methods": {}
  },
  "userdoc": {
    "methods": {}
  }
}